{
	"09 - Loops/ejercicios-resueltos.sol": {
		"EjerciciosLoops": {
			"abi": [
				{
					"inputs": [
						{
							"internalType": "uint256",
							"name": "clave",
							"type": "uint256"
						}
					],
					"name": "buscarTesorito",
					"outputs": [
						{
							"internalType": "uint256",
							"name": "",
							"type": "uint256"
						}
					],
					"stateMutability": "view",
					"type": "function"
				},
				{
					"inputs": [
						{
							"internalType": "uint256",
							"name": "",
							"type": "uint256"
						}
					],
					"name": "repositorioDeCifras",
					"outputs": [
						{
							"internalType": "uint256",
							"name": "",
							"type": "uint256"
						}
					],
					"stateMutability": "view",
					"type": "function"
				},
				{
					"inputs": [
						{
							"internalType": "uint256",
							"name": "n",
							"type": "uint256"
						},
						{
							"internalType": "uint256",
							"name": "_limite",
							"type": "uint256"
						}
					],
					"name": "sumatoria",
					"outputs": [
						{
							"internalType": "uint256",
							"name": "",
							"type": "uint256"
						}
					],
					"stateMutability": "pure",
					"type": "function"
				}
			],
			"devdoc": {
				"kind": "dev",
				"methods": {},
				"version": 1
			},
			"evm": {
				"assembly": "    /* \"09 - Loops/ejercicios-resueltos.sol\":1129:2237  contract EjerciciosLoops {... */\n  mstore(0x40, 0x80)\n    /* \"09 - Loops/ejercicios-resueltos.sol\":1656:1718  uint256[] public repositorioDeCifras = [15, 42, 8, 99, 23, 10] */\n  mload(0x40)\n  dup1\n  0xc0\n  add\n  0x40\n  mstore\n  dup1\n    /* \"09 - Loops/ejercicios-resueltos.sol\":1696:1698  15 */\n  0x0f\n    /* \"09 - Loops/ejercicios-resueltos.sol\":1656:1718  uint256[] public repositorioDeCifras = [15, 42, 8, 99, 23, 10] */\n  0xff\n  and\n  dup2\n  mstore\n  0x20\n  add\n    /* \"09 - Loops/ejercicios-resueltos.sol\":1700:1702  42 */\n  0x2a\n    /* \"09 - Loops/ejercicios-resueltos.sol\":1656:1718  uint256[] public repositorioDeCifras = [15, 42, 8, 99, 23, 10] */\n  0xff\n  and\n  dup2\n  mstore\n  0x20\n  add\n    /* \"09 - Loops/ejercicios-resueltos.sol\":1704:1705  8 */\n  0x08\n    /* \"09 - Loops/ejercicios-resueltos.sol\":1656:1718  uint256[] public repositorioDeCifras = [15, 42, 8, 99, 23, 10] */\n  0xff\n  and\n  dup2\n  mstore\n  0x20\n  add\n    /* \"09 - Loops/ejercicios-resueltos.sol\":1707:1709  99 */\n  0x63\n    /* \"09 - Loops/ejercicios-resueltos.sol\":1656:1718  uint256[] public repositorioDeCifras = [15, 42, 8, 99, 23, 10] */\n  0xff\n  and\n  dup2\n  mstore\n  0x20\n  add\n    /* \"09 - Loops/ejercicios-resueltos.sol\":1711:1713  23 */\n  0x17\n    /* \"09 - Loops/ejercicios-resueltos.sol\":1656:1718  uint256[] public repositorioDeCifras = [15, 42, 8, 99, 23, 10] */\n  0xff\n  and\n  dup2\n  mstore\n  0x20\n  add\n    /* \"09 - Loops/ejercicios-resueltos.sol\":1715:1717  10 */\n  0x0a\n    /* \"09 - Loops/ejercicios-resueltos.sol\":1656:1718  uint256[] public repositorioDeCifras = [15, 42, 8, 99, 23, 10] */\n  0xff\n  and\n  dup2\n  mstore\n  pop\n  0x00\n  swap1\n  dup2\n  tag_1\n  swap2\n  swap1\n  tag_2\n  jump\t// in\ntag_1:\n  pop\n    /* \"09 - Loops/ejercicios-resueltos.sol\":1129:2237  contract EjerciciosLoops {... */\n  callvalue\n  dup1\n  iszero\n  tag_3\n  jumpi\n  revert(0x00, 0x00)\ntag_3:\n  pop\n  jump(tag_4)\n    /* \"#utility.yul\":7:187   */\ntag_5:\n    /* \"#utility.yul\":55:132   */\n  0x4e487b7100000000000000000000000000000000000000000000000000000000\n    /* \"#utility.yul\":52:53   */\n  0x00\n    /* \"#utility.yul\":45:133   */\n  mstore\n    /* \"#utility.yul\":152:156   */\n  0x41\n    /* \"#utility.yul\":149:150   */\n  0x04\n    /* \"#utility.yul\":142:157   */\n  mstore\n    /* \"#utility.yul\":176:180   */\n  0x24\n    /* \"#utility.yul\":173:174   */\n  0x00\n    /* \"#utility.yul\":166:181   */\n  revert\n    /* \"#utility.yul\":193:304   */\ntag_6:\n    /* \"#utility.yul\":257:263   */\n  0x00\n    /* \"#utility.yul\":291:296   */\n  dup2\n    /* \"#utility.yul\":285:297   */\n  sload\n    /* \"#utility.yul\":275:297   */\n  swap1\n  pop\n    /* \"#utility.yul\":193:304   */\n  swap2\n  swap1\n  pop\n  jump\t// out\n    /* \"#utility.yul\":310:387   */\ntag_7:\n    /* \"#utility.yul\":347:354   */\n  0x00\n    /* \"#utility.yul\":376:381   */\n  dup2\n    /* \"#utility.yul\":365:381   */\n  swap1\n  pop\n    /* \"#utility.yul\":310:387   */\n  swap2\n  swap1\n  pop\n  jump\t// out\n    /* \"#utility.yul\":995:1198   */\ntag_10:\n    /* \"#utility.yul\":1076:1080   */\n  0x00\n    /* \"#utility.yul\":1099:1105   */\n  dup2\n    /* \"#utility.yul\":1091:1105   */\n  swap1\n  pop\n    /* \"#utility.yul\":1189:1190   */\n  0x01\n    /* \"#utility.yul\":1184:1185   */\n  dup1\n    /* \"#utility.yul\":1181:1182   */\n  0x01\n    /* \"#utility.yul\":1177:1186   */\n  sub\n    /* \"#utility.yul\":1169:1175   */\n  dup4\n    /* \"#utility.yul\":1165:1187   */\n  add\n    /* \"#utility.yul\":1161:1191   */\n  div\n    /* \"#utility.yul\":1153:1191   */\n  swap1\n  pop\n    /* \"#utility.yul\":995:1198   */\n  swap2\n  swap1\n  pop\n  jump\t// out\n    /* \"#utility.yul\":1203:1359   */\ntag_11:\n    /* \"#utility.yul\":1267:1271   */\n  0x00\n    /* \"#utility.yul\":1290:1293   */\n  dup2\n    /* \"#utility.yul\":1282:1293   */\n  swap1\n  pop\n    /* \"#utility.yul\":1313:1316   */\n  dup2\n    /* \"#utility.yul\":1310:1311   */\n  0x00\n    /* \"#utility.yul\":1303:1317   */\n  mstore\n    /* \"#utility.yul\":1347:1351   */\n  0x20\n    /* \"#utility.yul\":1344:1345   */\n  0x00\n    /* \"#utility.yul\":1334:1352   */\n  keccak256\n    /* \"#utility.yul\":1326:1352   */\n  swap1\n  pop\n    /* \"#utility.yul\":1203:1359   */\n  swap2\n  swap1\n  pop\n  jump\t// out\n    /* \"#utility.yul\":1365:1472   */\ntag_12:\n    /* \"#utility.yul\":1409:1417   */\n  0x00\n    /* \"#utility.yul\":1459:1464   */\n  dup3\n    /* \"#utility.yul\":1453:1457   */\n  dup3\n    /* \"#utility.yul\":1449:1465   */\n  shl\n    /* \"#utility.yul\":1428:1465   */\n  swap1\n  pop\n    /* \"#utility.yul\":1365:1472   */\n  swap3\n  swap2\n  pop\n  pop\n  jump\t// out\n    /* \"#utility.yul\":1478:1871   */\ntag_13:\n    /* \"#utility.yul\":1547:1553   */\n  0x00\n    /* \"#utility.yul\":1597:1598   */\n  0x08\n    /* \"#utility.yul\":1585:1595   */\n  dup4\n    /* \"#utility.yul\":1581:1599   */\n  mul\n    /* \"#utility.yul\":1620:1717   */\n  tag_47\n    /* \"#utility.yul\":1650:1716   */\n  0xffffffffffffffffffffffffffffffffffffffffffffffffffffffffffffffff\n    /* \"#utility.yul\":1639:1648   */\n  dup3\n    /* \"#utility.yul\":1620:1717   */\n  tag_12\n  jump\t// in\ntag_47:\n    /* \"#utility.yul\":1738:1777   */\n  tag_48\n    /* \"#utility.yul\":1768:1776   */\n  dup7\n    /* \"#utility.yul\":1757:1766   */\n  dup4\n    /* \"#utility.yul\":1738:1777   */\n  tag_12\n  jump\t// in\ntag_48:\n    /* \"#utility.yul\":1726:1777   */\n  swap6\n  pop\n    /* \"#utility.yul\":1810:1814   */\n  dup1\n    /* \"#utility.yul\":1806:1815   */\n  not\n    /* \"#utility.yul\":1799:1804   */\n  dup5\n    /* \"#utility.yul\":1795:1816   */\n  and\n    /* \"#utility.yul\":1786:1816   */\n  swap4\n  pop\n    /* \"#utility.yul\":1859:1863   */\n  dup1\n    /* \"#utility.yul\":1849:1857   */\n  dup7\n    /* \"#utility.yul\":1845:1864   */\n  and\n    /* \"#utility.yul\":1838:1843   */\n  dup5\n    /* \"#utility.yul\":1835:1865   */\n  or\n    /* \"#utility.yul\":1825:1865   */\n  swap3\n  pop\n    /* \"#utility.yul\":1554:1871   */\n  pop\n  pop\n    /* \"#utility.yul\":1478:1871   */\n  swap4\n  swap3\n  pop\n  pop\n  pop\n  jump\t// out\n    /* \"#utility.yul\":1877:1937   */\ntag_14:\n    /* \"#utility.yul\":1905:1908   */\n  0x00\n    /* \"#utility.yul\":1926:1931   */\n  dup2\n    /* \"#utility.yul\":1919:1931   */\n  swap1\n  pop\n    /* \"#utility.yul\":1877:1937   */\n  swap2\n  swap1\n  pop\n  jump\t// out\n    /* \"#utility.yul\":1943:2085   */\ntag_15:\n    /* \"#utility.yul\":1993:2002   */\n  0x00\n    /* \"#utility.yul\":2026:2079   */\n  tag_51\n    /* \"#utility.yul\":2044:2078   */\n  tag_52\n    /* \"#utility.yul\":2053:2077   */\n  tag_53\n    /* \"#utility.yul\":2071:2076   */\n  dup5\n    /* \"#utility.yul\":2053:2077   */\n  tag_7\n  jump\t// in\ntag_53:\n    /* \"#utility.yul\":2044:2078   */\n  tag_14\n  jump\t// in\ntag_52:\n    /* \"#utility.yul\":2026:2079   */\n  tag_7\n  jump\t// in\ntag_51:\n    /* \"#utility.yul\":2013:2079   */\n  swap1\n  pop\n    /* \"#utility.yul\":1943:2085   */\n  swap2\n  swap1\n  pop\n  jump\t// out\n    /* \"#utility.yul\":2091:2166   */\ntag_16:\n    /* \"#utility.yul\":2134:2137   */\n  0x00\n    /* \"#utility.yul\":2155:2160   */\n  dup2\n    /* \"#utility.yul\":2148:2160   */\n  swap1\n  pop\n    /* \"#utility.yul\":2091:2166   */\n  swap2\n  swap1\n  pop\n  jump\t// out\n    /* \"#utility.yul\":2172:2441   */\ntag_17:\n    /* \"#utility.yul\":2282:2321   */\n  tag_56\n    /* \"#utility.yul\":2313:2320   */\n  dup4\n    /* \"#utility.yul\":2282:2321   */\n  tag_15\n  jump\t// in\ntag_56:\n    /* \"#utility.yul\":2343:2434   */\n  tag_57\n    /* \"#utility.yul\":2392:2433   */\n  tag_58\n    /* \"#utility.yul\":2416:2432   */\n  dup3\n    /* \"#utility.yul\":2392:2433   */\n  tag_16\n  jump\t// in\ntag_58:\n    /* \"#utility.yul\":2384:2390   */\n  dup5\n    /* \"#utility.yul\":2377:2381   */\n  dup5\n    /* \"#utility.yul\":2371:2382   */\n  sload\n    /* \"#utility.yul\":2343:2434   */\n  tag_13\n  jump\t// in\ntag_57:\n    /* \"#utility.yul\":2337:2341   */\n  dup3\n    /* \"#utility.yul\":2330:2435   */\n  sstore\n    /* \"#utility.yul\":2248:2441   */\n  pop\n    /* \"#utility.yul\":2172:2441   */\n  pop\n  pop\n  pop\n  jump\t// out\n    /* \"#utility.yul\":2447:2520   */\ntag_18:\n    /* \"#utility.yul\":2492:2495   */\n  0x00\n    /* \"#utility.yul\":2513:2514   */\n  0x00\n    /* \"#utility.yul\":2506:2514   */\n  swap1\n  pop\n    /* \"#utility.yul\":2447:2520   */\n  swap1\n  jump\t// out\n    /* \"#utility.yul\":2526:2715   */\ntag_19:\n    /* \"#utility.yul\":2603:2635   */\n  tag_61\n  tag_18\n  jump\t// in\ntag_61:\n    /* \"#utility.yul\":2644:2709   */\n  tag_62\n    /* \"#utility.yul\":2702:2708   */\n  dup2\n    /* \"#utility.yul\":2694:2700   */\n  dup5\n    /* \"#utility.yul\":2688:2692   */\n  dup5\n    /* \"#utility.yul\":2644:2709   */\n  tag_17\n  jump\t// in\ntag_62:\n    /* \"#utility.yul\":2579:2715   */\n  pop\n    /* \"#utility.yul\":2526:2715   */\n  pop\n  pop\n  jump\t// out\n    /* \"#utility.yul\":2721:2936   */\ntag_20:\n    /* \"#utility.yul\":2807:2808   */\n  0x00\n    /* \"#utility.yul\":2792:2930   */\ntag_64:\n    /* \"#utility.yul\":2817:2826   */\n  dup3\n    /* \"#utility.yul\":2814:2815   */\n  dup2\n    /* \"#utility.yul\":2811:2827   */\n  lt\n    /* \"#utility.yul\":2792:2930   */\n  iszero\n  tag_66\n  jumpi\n    /* \"#utility.yul\":2869:2920   */\n  tag_67\n    /* \"#utility.yul\":2918:2919   */\n  0x00\n    /* \"#utility.yul\":2914:2915   */\n  dup3\n    /* \"#utility.yul\":2903:2912   */\n  dup5\n    /* \"#utility.yul\":2899:2916   */\n  add\n    /* \"#utility.yul\":2869:2920   */\n  tag_19\n  jump\t// in\ntag_67:\n    /* \"#utility.yul\":2842:2843   */\n  0x01\n    /* \"#utility.yul\":2839:2840   */\n  dup2\n    /* \"#utility.yul\":2835:2844   */\n  add\n    /* \"#utility.yul\":2830:2844   */\n  swap1\n  pop\n    /* \"#utility.yul\":2792:2930   */\n  jump(tag_64)\ntag_66:\n    /* \"#utility.yul\":2796:2810   */\n  pop\n    /* \"#utility.yul\":2721:2936   */\n  pop\n  pop\n  jump\t// out\n    /* \"#utility.yul\":3315:3955   */\ntag_23:\n    /* \"#utility.yul\":3435:3438   */\n  dup2\n    /* \"#utility.yul\":3423:3433   */\n  dup4\n    /* \"#utility.yul\":3420:3439   */\n  lt\n    /* \"#utility.yul\":3417:3948   */\n  iszero\n  tag_72\n  jumpi\n    /* \"#utility.yul\":3526:3591   */\n  tag_73\n    /* \"#utility.yul\":3587:3590   */\n  dup3\n    /* \"#utility.yul\":3526:3591   */\n  tag_10\n  jump\t// in\ntag_73:\n    /* \"#utility.yul\":3624:3696   */\n  tag_74\n    /* \"#utility.yul\":3685:3695   */\n  dup5\n    /* \"#utility.yul\":3624:3696   */\n  tag_10\n  jump\t// in\ntag_74:\n    /* \"#utility.yul\":3731:3784   */\n  tag_75\n    /* \"#utility.yul\":3778:3783   */\n  dup4\n    /* \"#utility.yul\":3731:3784   */\n  tag_11\n  jump\t// in\ntag_75:\n    /* \"#utility.yul\":3836:3848   */\n  dup2\n    /* \"#utility.yul\":3820:3834   */\n  dup2\n    /* \"#utility.yul\":3816:3849   */\n  add\n    /* \"#utility.yul\":3863:3938   */\n  tag_76\n    /* \"#utility.yul\":3924:3936   */\n  dup4\n    /* \"#utility.yul\":3910:3922   */\n  dup6\n    /* \"#utility.yul\":3906:3937   */\n  sub\n    /* \"#utility.yul\":3893:3904   */\n  dup3\n    /* \"#utility.yul\":3863:3938   */\n  tag_20\n  jump\t// in\ntag_76:\n    /* \"#utility.yul\":3440:3948   */\n  pop\n  pop\n  pop\n  pop\n    /* \"#utility.yul\":3417:3948   */\ntag_72:\n    /* \"#utility.yul\":3315:3955   */\n  pop\n  pop\n  pop\n  jump\t// out\n    /* \"#utility.yul\":3961:4349   */\ntag_24:\n    /* \"#utility.yul\":4054:4074   */\n  0x010000000000000000\n    /* \"#utility.yul\":4046:4052   */\n  dup3\n    /* \"#utility.yul\":4043:4075   */\n  gt\n    /* \"#utility.yul\":4040:4118   */\n  iszero\n  tag_78\n  jumpi\n    /* \"#utility.yul\":4090:4108   */\n  tag_79\n  tag_5\n  jump\t// in\ntag_79:\n    /* \"#utility.yul\":4040:4118   */\ntag_78:\n    /* \"#utility.yul\":4142:4193   */\n  tag_80\n    /* \"#utility.yul\":4187:4192   */\n  dup2\n    /* \"#utility.yul\":4142:4193   */\n  tag_6\n  jump\t// in\ntag_80:\n    /* \"#utility.yul\":4245:4251   */\n  dup3\n    /* \"#utility.yul\":4238:4243   */\n  dup3\n    /* \"#utility.yul\":4231:4252   */\n  sstore\n    /* \"#utility.yul\":4262:4342   */\n  tag_81\n    /* \"#utility.yul\":4335:4341   */\n  dup4\n    /* \"#utility.yul\":4327:4333   */\n  dup3\n    /* \"#utility.yul\":4320:4325   */\n  dup5\n    /* \"#utility.yul\":4262:4342   */\n  tag_23\n  jump\t// in\ntag_81:\n    /* \"#utility.yul\":4030:4349   */\n  pop\n    /* \"#utility.yul\":3961:4349   */\n  pop\n  pop\n  jump\t// out\n    /* \"#utility.yul\":4354:4456   */\ntag_25:\n    /* \"#utility.yul\":4417:4423   */\n  0x00\n    /* \"#utility.yul\":4445:4449   */\n  0x06\n    /* \"#utility.yul\":4435:4449   */\n  swap1\n  pop\n    /* \"#utility.yul\":4354:4456   */\n  swap2\n  swap1\n  pop\n  jump\t// out\n    /* \"#utility.yul\":4462:4548   */\ntag_26:\n    /* \"#utility.yul\":4497:4504   */\n  0x00\n    /* \"#utility.yul\":4537:4541   */\n  0xff\n    /* \"#utility.yul\":4530:4535   */\n  dup3\n    /* \"#utility.yul\":4526:4542   */\n  and\n    /* \"#utility.yul\":4515:4542   */\n  swap1\n  pop\n    /* \"#utility.yul\":4462:4548   */\n  swap2\n  swap1\n  pop\n  jump\t// out\n    /* \"#utility.yul\":4554:4704   */\ntag_27:\n    /* \"#utility.yul\":4595:4606   */\n  0x00\n    /* \"#utility.yul\":4631:4658   */\n  tag_85\n    /* \"#utility.yul\":4653:4656   */\n  dup3\n    /* \"#utility.yul\":4647:4657   */\n  mload\n    /* \"#utility.yul\":4631:4658   */\n  tag_26\n  jump\t// in\ntag_85:\n    /* \"#utility.yul\":4692:4697   */\n  dup1\n    /* \"#utility.yul\":4668:4697   */\n  swap2\n  pop\n    /* \"#utility.yul\":4607:4704   */\n  pop\n    /* \"#utility.yul\":4554:4704   */\n  swap2\n  swap1\n  pop\n  jump\t// out\n    /* \"#utility.yul\":4710:4806   */\ntag_28:\n    /* \"#utility.yul\":4773:4777   */\n  0x00\n    /* \"#utility.yul\":4796:4799   */\n  dup2\n    /* \"#utility.yul\":4788:4799   */\n  swap1\n  pop\n    /* \"#utility.yul\":4710:4806   */\n  swap2\n  swap1\n  pop\n  jump\t// out\n    /* \"#utility.yul\":5258:6245   */\ntag_2:\n    /* \"#utility.yul\":5395:5443   */\n  tag_96\n    /* \"#utility.yul\":5439:5442   */\n  dup3\n    /* \"#utility.yul\":5395:5443   */\n  tag_25\n  jump\t// in\ntag_96:\n    /* \"#utility.yul\":5508:5526   */\n  0xffffffffffffffff\n    /* \"#utility.yul\":5500:5506   */\n  dup2\n    /* \"#utility.yul\":5497:5527   */\n  gt\n    /* \"#utility.yul\":5494:5550   */\n  iszero\n  tag_97\n  jumpi\n    /* \"#utility.yul\":5530:5548   */\n  tag_98\n  tag_5\n  jump\t// in\ntag_98:\n    /* \"#utility.yul\":5494:5550   */\ntag_97:\n    /* \"#utility.yul\":5559:5616   */\n  tag_99\n    /* \"#utility.yul\":5609:5615   */\n  dup2\n    /* \"#utility.yul\":5604:5607   */\n  dup4\n    /* \"#utility.yul\":5559:5616   */\n  tag_24\n  jump\t// in\ntag_99:\n    /* \"#utility.yul\":5640:5690   */\n  tag_100\n    /* \"#utility.yul\":5686:5689   */\n  dup4\n    /* \"#utility.yul\":5640:5690   */\n  tag_28\n  jump\t// in\ntag_100:\n    /* \"#utility.yul\":5714:5765   */\n  tag_101\n    /* \"#utility.yul\":5761:5764   */\n  dup4\n    /* \"#utility.yul\":5714:5765   */\n  tag_11\n  jump\t// in\ntag_101:\n    /* \"#utility.yul\":5804:5805   */\n  0x01\n    /* \"#utility.yul\":5796:5802   */\n  dup4\n    /* \"#utility.yul\":5792:5806   */\n  div\n    /* \"#utility.yul\":5831:5832   */\n  0x00\n    /* \"#utility.yul\":5816:6238   */\ntag_102:\n    /* \"#utility.yul\":5841:5850   */\n  dup2\n    /* \"#utility.yul\":5838:5839   */\n  dup2\n    /* \"#utility.yul\":5835:5851   */\n  lt\n    /* \"#utility.yul\":5816:6238   */\n  iszero\n  tag_104\n  jumpi\n    /* \"#utility.yul\":5905:5906   */\n  0x00\n    /* \"#utility.yul\":5958:5989   */\n  tag_105\n    /* \"#utility.yul\":5982:5988   */\n  dup6\n    /* \"#utility.yul\":5958:5989   */\n  tag_27\n  jump\t// in\ntag_105:\n    /* \"#utility.yul\":6024:6060   */\n  tag_106\n    /* \"#utility.yul\":6048:6059   */\n  dup2\n    /* \"#utility.yul\":6024:6060   */\n  tag_16\n  jump\t// in\ntag_106:\n    /* \"#utility.yul\":6110:6119   */\n  dup1\n    /* \"#utility.yul\":6077:6119   */\n  swap3\n  pop\n    /* \"#utility.yul\":6159:6161   */\n  0x20\n    /* \"#utility.yul\":6151:6157   */\n  dup8\n    /* \"#utility.yul\":6147:6162   */\n  add\n    /* \"#utility.yul\":6137:6162   */\n  swap7\n  pop\n    /* \"#utility.yul\":5920:6177   */\n  pop\n  pop\n    /* \"#utility.yul\":6215:6227   */\n  dup1\n    /* \"#utility.yul\":6211:6212   */\n  dup3\n    /* \"#utility.yul\":6202:6209   */\n  dup6\n    /* \"#utility.yul\":6198:6213   */\n  add\n    /* \"#utility.yul\":6191:6228   */\n  sstore\n    /* \"#utility.yul\":5871:6238   */\n  pop\n    /* \"#utility.yul\":5866:5867   */\n  0x01\n    /* \"#utility.yul\":5863:5864   */\n  dup2\n    /* \"#utility.yul\":5859:5868   */\n  add\n    /* \"#utility.yul\":5854:5868   */\n  swap1\n  pop\n    /* \"#utility.yul\":5816:6238   */\n  jump(tag_102)\ntag_104:\n    /* \"#utility.yul\":5820:5834   */\n  pop\n    /* \"#utility.yul\":5370:6245   */\n  pop\n  pop\n  pop\n  pop\n    /* \"#utility.yul\":5258:6245   */\n  pop\n  pop\n  jump\t// out\n    /* \"09 - Loops/ejercicios-resueltos.sol\":1129:2237  contract EjerciciosLoops {... */\ntag_4:\n  dataSize(sub_0)\n  dup1\n  dataOffset(sub_0)\n  0x00\n  codecopy\n  0x00\n  return\nstop\n\nsub_0: assembly {\n        /* \"09 - Loops/ejercicios-resueltos.sol\":1129:2237  contract EjerciciosLoops {... */\n      mstore(0x40, 0x80)\n      callvalue\n      dup1\n      iszero\n      tag_1\n      jumpi\n      revert(0x00, 0x00)\n    tag_1:\n      pop\n      jumpi(tag_2, lt(calldatasize, 0x04))\n      shr(0xe0, calldataload(0x00))\n      dup1\n      0x0aaa9cc5\n      eq\n      tag_3\n      jumpi\n      dup1\n      0x1dad82a5\n      eq\n      tag_4\n      jumpi\n      dup1\n      0x71195b64\n      eq\n      tag_5\n      jumpi\n    tag_2:\n      revert(0x00, 0x00)\n        /* \"09 - Loops/ejercicios-resueltos.sol\":1656:1718  uint256[] public repositorioDeCifras = [15, 42, 8, 99, 23, 10] */\n    tag_3:\n      tag_6\n      0x04\n      dup1\n      calldatasize\n      sub\n      dup2\n      add\n      swap1\n      tag_7\n      swap2\n      swap1\n      tag_8\n      jump\t// in\n    tag_7:\n      tag_9\n      jump\t// in\n    tag_6:\n      mload(0x40)\n      tag_10\n      swap2\n      swap1\n      tag_11\n      jump\t// in\n    tag_10:\n      mload(0x40)\n      dup1\n      swap2\n      sub\n      swap1\n      return\n        /* \"09 - Loops/ejercicios-resueltos.sol\":1229:1650  function sumatoria(uint256 n, uint256 _limite) public pure returns (uint256) {... */\n    tag_4:\n      tag_12\n      0x04\n      dup1\n      calldatasize\n      sub\n      dup2\n      add\n      swap1\n      tag_13\n      swap2\n      swap1\n      tag_14\n      jump\t// in\n    tag_13:\n      tag_15\n      jump\t// in\n    tag_12:\n      mload(0x40)\n      tag_16\n      swap2\n      swap1\n      tag_11\n      jump\t// in\n    tag_16:\n      mload(0x40)\n      dup1\n      swap2\n      sub\n      swap1\n      return\n        /* \"09 - Loops/ejercicios-resueltos.sol\":1789:2235  function buscarTesorito(uint256 clave) public view returns (uint256) {... */\n    tag_5:\n      tag_17\n      0x04\n      dup1\n      calldatasize\n      sub\n      dup2\n      add\n      swap1\n      tag_18\n      swap2\n      swap1\n      tag_8\n      jump\t// in\n    tag_18:\n      tag_19\n      jump\t// in\n    tag_17:\n      mload(0x40)\n      tag_20\n      swap2\n      swap1\n      tag_11\n      jump\t// in\n    tag_20:\n      mload(0x40)\n      dup1\n      swap2\n      sub\n      swap1\n      return\n        /* \"09 - Loops/ejercicios-resueltos.sol\":1656:1718  uint256[] public repositorioDeCifras = [15, 42, 8, 99, 23, 10] */\n    tag_9:\n      0x00\n      dup2\n      dup2\n      sload\n      dup2\n      lt\n      tag_21\n      jumpi\n      0x00\n      dup1\n      revert\n    tag_21:\n      swap1\n      0x00\n      mstore\n      keccak256(0x00, 0x20)\n      add\n      0x00\n      swap2\n      pop\n      swap1\n      pop\n      sload\n      dup2\n      jump\t// out\n        /* \"09 - Loops/ejercicios-resueltos.sol\":1229:1650  function sumatoria(uint256 n, uint256 _limite) public pure returns (uint256) {... */\n    tag_15:\n        /* \"09 - Loops/ejercicios-resueltos.sol\":1297:1304  uint256 */\n      0x00\n        /* \"09 - Loops/ejercicios-resueltos.sol\":1359:1366  _limite */\n      dup2\n        /* \"09 - Loops/ejercicios-resueltos.sol\":1355:1356  n */\n      dup4\n        /* \"09 - Loops/ejercicios-resueltos.sol\":1355:1366  n > _limite */\n      gt\n        /* \"09 - Loops/ejercicios-resueltos.sol\":1355:1376  n > _limite || n == 0 */\n      dup1\n      tag_24\n      jumpi\n      pop\n        /* \"09 - Loops/ejercicios-resueltos.sol\":1375:1376  0 */\n      0x00\n        /* \"09 - Loops/ejercicios-resueltos.sol\":1370:1371  n */\n      dup4\n        /* \"09 - Loops/ejercicios-resueltos.sol\":1370:1376  n == 0 */\n      eq\n        /* \"09 - Loops/ejercicios-resueltos.sol\":1355:1376  n > _limite || n == 0 */\n    tag_24:\n        /* \"09 - Loops/ejercicios-resueltos.sol\":1352:1406  if(n > _limite || n == 0){... */\n      iszero\n      tag_25\n      jumpi\n        /* \"09 - Loops/ejercicios-resueltos.sol\":1394:1395  0 */\n      0x00\n        /* \"09 - Loops/ejercicios-resueltos.sol\":1387:1395  return 0 */\n      swap1\n      pop\n      jump(tag_23)\n        /* \"09 - Loops/ejercicios-resueltos.sol\":1352:1406  if(n > _limite || n == 0){... */\n    tag_25:\n        /* \"09 - Loops/ejercicios-resueltos.sol\":1416:1429  uint256 total */\n      0x00\n        /* \"09 - Loops/ejercicios-resueltos.sol\":1443:1452  uint256 i */\n      0x00\n        /* \"09 - Loops/ejercicios-resueltos.sol\":1455:1456  n */\n      dup5\n        /* \"09 - Loops/ejercicios-resueltos.sol\":1443:1456  uint256 i = n */\n      swap1\n      pop\n        /* \"09 - Loops/ejercicios-resueltos.sol\":1439:1587  for(uint256 i = n; i <= _limite; i+=n){... */\n    tag_26:\n        /* \"09 - Loops/ejercicios-resueltos.sol\":1463:1470  _limite */\n      dup4\n        /* \"09 - Loops/ejercicios-resueltos.sol\":1458:1459  i */\n      dup2\n        /* \"09 - Loops/ejercicios-resueltos.sol\":1458:1470  i <= _limite */\n      gt\n        /* \"09 - Loops/ejercicios-resueltos.sol\":1439:1587  for(uint256 i = n; i <= _limite; i+=n){... */\n      tag_27\n      jumpi\n        /* \"09 - Loops/ejercicios-resueltos.sol\":1500:1501  n */\n      dup5\n        /* \"09 - Loops/ejercicios-resueltos.sol\":1491:1501  total += n */\n      dup3\n      tag_29\n      swap2\n      swap1\n      tag_30\n      jump\t// in\n    tag_29:\n      swap2\n      pop\n        /* \"09 - Loops/ejercicios-resueltos.sol\":1533:1534  n */\n      dup5\n        /* \"09 - Loops/ejercicios-resueltos.sol\":1529:1530  i */\n      dup2\n        /* \"09 - Loops/ejercicios-resueltos.sol\":1519:1526  _limite */\n      dup6\n        /* \"09 - Loops/ejercicios-resueltos.sol\":1519:1530  _limite - i */\n      tag_31\n      swap2\n      swap1\n      tag_32\n      jump\t// in\n    tag_31:\n        /* \"09 - Loops/ejercicios-resueltos.sol\":1519:1534  _limite - i < n */\n      lt\n        /* \"09 - Loops/ejercicios-resueltos.sol\":1554:1559  break */\n      tag_27\n        /* \"09 - Loops/ejercicios-resueltos.sol\":1515:1574  if (_limite - i < n) {... */\n      jumpi\n        /* \"09 - Loops/ejercicios-resueltos.sol\":1475:1476  n */\n      dup5\n        /* \"09 - Loops/ejercicios-resueltos.sol\":1472:1476  i+=n */\n      dup2\n      tag_34\n      swap2\n      swap1\n      tag_30\n      jump\t// in\n    tag_34:\n      swap1\n      pop\n        /* \"09 - Loops/ejercicios-resueltos.sol\":1439:1587  for(uint256 i = n; i <= _limite; i+=n){... */\n      jump(tag_26)\n    tag_27:\n      pop\n        /* \"09 - Loops/ejercicios-resueltos.sol\":1603:1608  total */\n      dup1\n        /* \"09 - Loops/ejercicios-resueltos.sol\":1596:1608  return total */\n      swap2\n      pop\n      pop\n        /* \"09 - Loops/ejercicios-resueltos.sol\":1229:1650  function sumatoria(uint256 n, uint256 _limite) public pure returns (uint256) {... */\n    tag_23:\n      swap3\n      swap2\n      pop\n      pop\n      jump\t// out\n        /* \"09 - Loops/ejercicios-resueltos.sol\":1789:2235  function buscarTesorito(uint256 clave) public view returns (uint256) {... */\n    tag_19:\n        /* \"09 - Loops/ejercicios-resueltos.sol\":1849:1856  uint256 */\n      0x00\n        /* \"09 - Loops/ejercicios-resueltos.sol\":1904:1926  uint256[] memory copia */\n      0x00\n        /* \"09 - Loops/ejercicios-resueltos.sol\":1929:1948  repositorioDeCifras */\n      0x00\n        /* \"09 - Loops/ejercicios-resueltos.sol\":1904:1948  uint256[] memory copia = repositorioDeCifras */\n      dup1\n      sload\n      dup1\n      0x20\n      mul\n      0x20\n      add\n      mload(0x40)\n      swap1\n      dup2\n      add\n      0x40\n      mstore\n      dup1\n      swap3\n      swap2\n      swap1\n      dup2\n      dup2\n      mstore\n      0x20\n      add\n      dup3\n      dup1\n      sload\n      dup1\n      iszero\n      tag_36\n      jumpi\n      0x20\n      mul\n      dup3\n      add\n      swap2\n      swap1\n      0x00\n      mstore\n      keccak256(0x00, 0x20)\n      swap1\n    tag_37:\n      dup2\n      sload\n      dup2\n      mstore\n      0x20\n      add\n      swap1\n      0x01\n      add\n      swap1\n      dup1\n      dup4\n      gt\n      tag_37\n      jumpi\n    tag_36:\n      pop\n      pop\n      pop\n      pop\n      pop\n      swap1\n      pop\n        /* \"09 - Loops/ejercicios-resueltos.sol\":1958:1967  uint256 i */\n      0x00\n        /* \"09 - Loops/ejercicios-resueltos.sol\":1977:1991  uint256 limite */\n      0x00\n        /* \"09 - Loops/ejercicios-resueltos.sol\":1994:1999  copia */\n      dup3\n        /* \"09 - Loops/ejercicios-resueltos.sol\":1994:2006  copia.length */\n      mload\n        /* \"09 - Loops/ejercicios-resueltos.sol\":1977:2006  uint256 limite = copia.length */\n      swap1\n      pop\n        /* \"09 - Loops/ejercicios-resueltos.sol\":2016:2156  while(i < limite){... */\n    tag_38:\n        /* \"09 - Loops/ejercicios-resueltos.sol\":2026:2032  limite */\n      dup1\n        /* \"09 - Loops/ejercicios-resueltos.sol\":2022:2023  i */\n      dup3\n        /* \"09 - Loops/ejercicios-resueltos.sol\":2022:2032  i < limite */\n      lt\n        /* \"09 - Loops/ejercicios-resueltos.sol\":2016:2156  while(i < limite){... */\n      iszero\n      tag_39\n      jumpi\n        /* \"09 - Loops/ejercicios-resueltos.sol\":2062:2067  clave */\n      dup5\n        /* \"09 - Loops/ejercicios-resueltos.sol\":2050:2055  copia */\n      dup4\n        /* \"09 - Loops/ejercicios-resueltos.sol\":2056:2057  i */\n      dup4\n        /* \"09 - Loops/ejercicios-resueltos.sol\":2050:2058  copia[i] */\n      dup2\n      mload\n      dup2\n      lt\n      tag_40\n      jumpi\n      tag_41\n      tag_42\n      jump\t// in\n    tag_41:\n    tag_40:\n      0x20\n      mul\n      0x20\n      add\n      add\n      mload\n        /* \"09 - Loops/ejercicios-resueltos.sol\":2050:2067  copia[i] == clave */\n      sub\n        /* \"09 - Loops/ejercicios-resueltos.sol\":2047:2146  if(copia[i] == clave){... */\n      iszero\n        /* \"09 - Loops/ejercicios-resueltos.sol\":2086:2091  break */\n      tag_39\n        /* \"09 - Loops/ejercicios-resueltos.sol\":2047:2146  if(copia[i] == clave){... */\n      jumpi\n        /* \"09 - Loops/ejercicios-resueltos.sol\":2128:2131  i++ */\n      dup2\n      dup1\n      tag_45\n      swap1\n      tag_46\n      jump\t// in\n    tag_45:\n      swap3\n      pop\n      pop\n        /* \"09 - Loops/ejercicios-resueltos.sol\":2016:2156  while(i < limite){... */\n      jump(tag_38)\n    tag_39:\n        /* \"09 - Loops/ejercicios-resueltos.sol\":2178:2184  limite */\n      dup1\n        /* \"09 - Loops/ejercicios-resueltos.sol\":2173:2174  i */\n      dup3\n        /* \"09 - Loops/ejercicios-resueltos.sol\":2173:2184  i == limite */\n      eq\n        /* \"09 - Loops/ejercicios-resueltos.sol\":2172:2194  (i == limite)? 999 : i */\n      tag_47\n      jumpi\n        /* \"09 - Loops/ejercicios-resueltos.sol\":2193:2194  i */\n      dup2\n        /* \"09 - Loops/ejercicios-resueltos.sol\":2172:2194  (i == limite)? 999 : i */\n      jump(tag_48)\n    tag_47:\n        /* \"09 - Loops/ejercicios-resueltos.sol\":2187:2190  999 */\n      0x03e7\n        /* \"09 - Loops/ejercicios-resueltos.sol\":2172:2194  (i == limite)? 999 : i */\n    tag_48:\n        /* \"09 - Loops/ejercicios-resueltos.sol\":2165:2194  return (i == limite)? 999 : i */\n      swap4\n      pop\n      pop\n      pop\n      pop\n        /* \"09 - Loops/ejercicios-resueltos.sol\":1789:2235  function buscarTesorito(uint256 clave) public view returns (uint256) {... */\n      swap2\n      swap1\n      pop\n      jump\t// out\n        /* \"#utility.yul\":88:205   */\n    tag_50:\n        /* \"#utility.yul\":197:198   */\n      0x00\n        /* \"#utility.yul\":194:195   */\n      0x00\n        /* \"#utility.yul\":187:199   */\n      revert\n        /* \"#utility.yul\":334:411   */\n    tag_52:\n        /* \"#utility.yul\":371:378   */\n      0x00\n        /* \"#utility.yul\":400:405   */\n      dup2\n        /* \"#utility.yul\":389:405   */\n      swap1\n      pop\n        /* \"#utility.yul\":334:411   */\n      swap2\n      swap1\n      pop\n      jump\t// out\n        /* \"#utility.yul\":417:539   */\n    tag_53:\n        /* \"#utility.yul\":490:514   */\n      tag_63\n        /* \"#utility.yul\":508:513   */\n      dup2\n        /* \"#utility.yul\":490:514   */\n      tag_52\n      jump\t// in\n    tag_63:\n        /* \"#utility.yul\":483:488   */\n      dup2\n        /* \"#utility.yul\":480:515   */\n      eq\n        /* \"#utility.yul\":470:533   */\n      tag_64\n      jumpi\n        /* \"#utility.yul\":529:530   */\n      0x00\n        /* \"#utility.yul\":526:527   */\n      0x00\n        /* \"#utility.yul\":519:531   */\n      revert\n        /* \"#utility.yul\":470:533   */\n    tag_64:\n        /* \"#utility.yul\":417:539   */\n      pop\n      jump\t// out\n        /* \"#utility.yul\":545:684   */\n    tag_54:\n        /* \"#utility.yul\":591:596   */\n      0x00\n        /* \"#utility.yul\":629:635   */\n      dup2\n        /* \"#utility.yul\":616:636   */\n      calldataload\n        /* \"#utility.yul\":607:636   */\n      swap1\n      pop\n        /* \"#utility.yul\":645:678   */\n      tag_66\n        /* \"#utility.yul\":672:677   */\n      dup2\n        /* \"#utility.yul\":645:678   */\n      tag_53\n      jump\t// in\n    tag_66:\n        /* \"#utility.yul\":545:684   */\n      swap3\n      swap2\n      pop\n      pop\n      jump\t// out\n        /* \"#utility.yul\":690:1019   */\n    tag_8:\n        /* \"#utility.yul\":749:755   */\n      0x00\n        /* \"#utility.yul\":798:800   */\n      0x20\n        /* \"#utility.yul\":786:795   */\n      dup3\n        /* \"#utility.yul\":777:784   */\n      dup5\n        /* \"#utility.yul\":773:796   */\n      sub\n        /* \"#utility.yul\":769:801   */\n      slt\n        /* \"#utility.yul\":766:885   */\n      iszero\n      tag_68\n      jumpi\n        /* \"#utility.yul\":804:883   */\n      tag_69\n      tag_50\n      jump\t// in\n    tag_69:\n        /* \"#utility.yul\":766:885   */\n    tag_68:\n        /* \"#utility.yul\":924:925   */\n      0x00\n        /* \"#utility.yul\":949:1002   */\n      tag_70\n        /* \"#utility.yul\":994:1001   */\n      dup5\n        /* \"#utility.yul\":985:991   */\n      dup3\n        /* \"#utility.yul\":974:983   */\n      dup6\n        /* \"#utility.yul\":970:992   */\n      add\n        /* \"#utility.yul\":949:1002   */\n      tag_54\n      jump\t// in\n    tag_70:\n        /* \"#utility.yul\":939:1002   */\n      swap2\n      pop\n        /* \"#utility.yul\":895:1012   */\n      pop\n        /* \"#utility.yul\":690:1019   */\n      swap3\n      swap2\n      pop\n      pop\n      jump\t// out\n        /* \"#utility.yul\":1025:1143   */\n    tag_55:\n        /* \"#utility.yul\":1112:1136   */\n      tag_72\n        /* \"#utility.yul\":1130:1135   */\n      dup2\n        /* \"#utility.yul\":1112:1136   */\n      tag_52\n      jump\t// in\n    tag_72:\n        /* \"#utility.yul\":1107:1110   */\n      dup3\n        /* \"#utility.yul\":1100:1137   */\n      mstore\n        /* \"#utility.yul\":1025:1143   */\n      pop\n      pop\n      jump\t// out\n        /* \"#utility.yul\":1149:1371   */\n    tag_11:\n        /* \"#utility.yul\":1242:1246   */\n      0x00\n        /* \"#utility.yul\":1280:1282   */\n      0x20\n        /* \"#utility.yul\":1269:1278   */\n      dup3\n        /* \"#utility.yul\":1265:1283   */\n      add\n        /* \"#utility.yul\":1257:1283   */\n      swap1\n      pop\n        /* \"#utility.yul\":1293:1364   */\n      tag_74\n        /* \"#utility.yul\":1361:1362   */\n      0x00\n        /* \"#utility.yul\":1350:1359   */\n      dup4\n        /* \"#utility.yul\":1346:1363   */\n      add\n        /* \"#utility.yul\":1337:1343   */\n      dup5\n        /* \"#utility.yul\":1293:1364   */\n      tag_55\n      jump\t// in\n    tag_74:\n        /* \"#utility.yul\":1149:1371   */\n      swap3\n      swap2\n      pop\n      pop\n      jump\t// out\n        /* \"#utility.yul\":1377:1851   */\n    tag_14:\n        /* \"#utility.yul\":1445:1451   */\n      0x00\n        /* \"#utility.yul\":1453:1459   */\n      0x00\n        /* \"#utility.yul\":1502:1504   */\n      0x40\n        /* \"#utility.yul\":1490:1499   */\n      dup4\n        /* \"#utility.yul\":1481:1488   */\n      dup6\n        /* \"#utility.yul\":1477:1500   */\n      sub\n        /* \"#utility.yul\":1473:1505   */\n      slt\n        /* \"#utility.yul\":1470:1589   */\n      iszero\n      tag_76\n      jumpi\n        /* \"#utility.yul\":1508:1587   */\n      tag_77\n      tag_50\n      jump\t// in\n    tag_77:\n        /* \"#utility.yul\":1470:1589   */\n    tag_76:\n        /* \"#utility.yul\":1628:1629   */\n      0x00\n        /* \"#utility.yul\":1653:1706   */\n      tag_78\n        /* \"#utility.yul\":1698:1705   */\n      dup6\n        /* \"#utility.yul\":1689:1695   */\n      dup3\n        /* \"#utility.yul\":1678:1687   */\n      dup7\n        /* \"#utility.yul\":1674:1696   */\n      add\n        /* \"#utility.yul\":1653:1706   */\n      tag_54\n      jump\t// in\n    tag_78:\n        /* \"#utility.yul\":1643:1706   */\n      swap3\n      pop\n        /* \"#utility.yul\":1599:1716   */\n      pop\n        /* \"#utility.yul\":1755:1757   */\n      0x20\n        /* \"#utility.yul\":1781:1834   */\n      tag_79\n        /* \"#utility.yul\":1826:1833   */\n      dup6\n        /* \"#utility.yul\":1817:1823   */\n      dup3\n        /* \"#utility.yul\":1806:1815   */\n      dup7\n        /* \"#utility.yul\":1802:1824   */\n      add\n        /* \"#utility.yul\":1781:1834   */\n      tag_54\n      jump\t// in\n    tag_79:\n        /* \"#utility.yul\":1771:1834   */\n      swap2\n      pop\n        /* \"#utility.yul\":1726:1844   */\n      pop\n        /* \"#utility.yul\":1377:1851   */\n      swap3\n      pop\n      swap3\n      swap1\n      pop\n      jump\t// out\n        /* \"#utility.yul\":1857:2037   */\n    tag_56:\n        /* \"#utility.yul\":1905:1982   */\n      0x4e487b7100000000000000000000000000000000000000000000000000000000\n        /* \"#utility.yul\":1902:1903   */\n      0x00\n        /* \"#utility.yul\":1895:1983   */\n      mstore\n        /* \"#utility.yul\":2002:2006   */\n      0x11\n        /* \"#utility.yul\":1999:2000   */\n      0x04\n        /* \"#utility.yul\":1992:2007   */\n      mstore\n        /* \"#utility.yul\":2026:2030   */\n      0x24\n        /* \"#utility.yul\":2023:2024   */\n      0x00\n        /* \"#utility.yul\":2016:2031   */\n      revert\n        /* \"#utility.yul\":2043:2234   */\n    tag_30:\n        /* \"#utility.yul\":2083:2086   */\n      0x00\n        /* \"#utility.yul\":2102:2122   */\n      tag_82\n        /* \"#utility.yul\":2120:2121   */\n      dup3\n        /* \"#utility.yul\":2102:2122   */\n      tag_52\n      jump\t// in\n    tag_82:\n        /* \"#utility.yul\":2097:2122   */\n      swap2\n      pop\n        /* \"#utility.yul\":2136:2156   */\n      tag_83\n        /* \"#utility.yul\":2154:2155   */\n      dup4\n        /* \"#utility.yul\":2136:2156   */\n      tag_52\n      jump\t// in\n    tag_83:\n        /* \"#utility.yul\":2131:2156   */\n      swap3\n      pop\n        /* \"#utility.yul\":2179:2180   */\n      dup3\n        /* \"#utility.yul\":2176:2177   */\n      dup3\n        /* \"#utility.yul\":2172:2181   */\n      add\n        /* \"#utility.yul\":2165:2181   */\n      swap1\n      pop\n        /* \"#utility.yul\":2200:2203   */\n      dup1\n        /* \"#utility.yul\":2197:2198   */\n      dup3\n        /* \"#utility.yul\":2194:2204   */\n      gt\n        /* \"#utility.yul\":2191:2227   */\n      iszero\n      tag_84\n      jumpi\n        /* \"#utility.yul\":2207:2225   */\n      tag_85\n      tag_56\n      jump\t// in\n    tag_85:\n        /* \"#utility.yul\":2191:2227   */\n    tag_84:\n        /* \"#utility.yul\":2043:2234   */\n      swap3\n      swap2\n      pop\n      pop\n      jump\t// out\n        /* \"#utility.yul\":2240:2434   */\n    tag_32:\n        /* \"#utility.yul\":2280:2284   */\n      0x00\n        /* \"#utility.yul\":2300:2320   */\n      tag_87\n        /* \"#utility.yul\":2318:2319   */\n      dup3\n        /* \"#utility.yul\":2300:2320   */\n      tag_52\n      jump\t// in\n    tag_87:\n        /* \"#utility.yul\":2295:2320   */\n      swap2\n      pop\n        /* \"#utility.yul\":2334:2354   */\n      tag_88\n        /* \"#utility.yul\":2352:2353   */\n      dup4\n        /* \"#utility.yul\":2334:2354   */\n      tag_52\n      jump\t// in\n    tag_88:\n        /* \"#utility.yul\":2329:2354   */\n      swap3\n      pop\n        /* \"#utility.yul\":2378:2379   */\n      dup3\n        /* \"#utility.yul\":2375:2376   */\n      dup3\n        /* \"#utility.yul\":2371:2380   */\n      sub\n        /* \"#utility.yul\":2363:2380   */\n      swap1\n      pop\n        /* \"#utility.yul\":2402:2403   */\n      dup2\n        /* \"#utility.yul\":2396:2400   */\n      dup2\n        /* \"#utility.yul\":2393:2404   */\n      gt\n        /* \"#utility.yul\":2390:2427   */\n      iszero\n      tag_89\n      jumpi\n        /* \"#utility.yul\":2407:2425   */\n      tag_90\n      tag_56\n      jump\t// in\n    tag_90:\n        /* \"#utility.yul\":2390:2427   */\n    tag_89:\n        /* \"#utility.yul\":2240:2434   */\n      swap3\n      swap2\n      pop\n      pop\n      jump\t// out\n        /* \"#utility.yul\":2440:2620   */\n    tag_42:\n        /* \"#utility.yul\":2488:2565   */\n      0x4e487b7100000000000000000000000000000000000000000000000000000000\n        /* \"#utility.yul\":2485:2486   */\n      0x00\n        /* \"#utility.yul\":2478:2566   */\n      mstore\n        /* \"#utility.yul\":2585:2589   */\n      0x32\n        /* \"#utility.yul\":2582:2583   */\n      0x04\n        /* \"#utility.yul\":2575:2590   */\n      mstore\n        /* \"#utility.yul\":2609:2613   */\n      0x24\n        /* \"#utility.yul\":2606:2607   */\n      0x00\n        /* \"#utility.yul\":2599:2614   */\n      revert\n        /* \"#utility.yul\":2626:2859   */\n    tag_46:\n        /* \"#utility.yul\":2665:2668   */\n      0x00\n        /* \"#utility.yul\":2688:2712   */\n      tag_93\n        /* \"#utility.yul\":2706:2711   */\n      dup3\n        /* \"#utility.yul\":2688:2712   */\n      tag_52\n      jump\t// in\n    tag_93:\n        /* \"#utility.yul\":2679:2712   */\n      swap2\n      pop\n        /* \"#utility.yul\":2734:2800   */\n      0xffffffffffffffffffffffffffffffffffffffffffffffffffffffffffffffff\n        /* \"#utility.yul\":2727:2732   */\n      dup3\n        /* \"#utility.yul\":2724:2801   */\n      sub\n        /* \"#utility.yul\":2721:2824   */\n      tag_94\n      jumpi\n        /* \"#utility.yul\":2804:2822   */\n      tag_95\n      tag_56\n      jump\t// in\n    tag_95:\n        /* \"#utility.yul\":2721:2824   */\n    tag_94:\n        /* \"#utility.yul\":2851:2852   */\n      0x01\n        /* \"#utility.yul\":2844:2849   */\n      dup3\n        /* \"#utility.yul\":2840:2853   */\n      add\n        /* \"#utility.yul\":2833:2853   */\n      swap1\n      pop\n        /* \"#utility.yul\":2626:2859   */\n      swap2\n      swap1\n      pop\n      jump\t// out\n\n    auxdata: 0xa2646970667358221220d96e17fc4abaa5f85f4af4ce2b427dbbff05f2e8b6599dff1f1606c3687fa0a964736f6c63430008220033\n}\n",
				"bytecode": {
					"linkReferences": {},
					"object": "60806040526040518060c00160405280600f60ff168152602001602a60ff168152602001600860ff168152602001606360ff168152602001601760ff168152602001600a60ff168152505f9081610056919061026d565b50348015610062575f5ffd5b506102f1565b7f4e487b71000000000000000000000000000000000000000000000000000000005f52604160045260245ffd5b5f81549050919050565b5f819050919050565b5f8190506001806001038301049050919050565b5f819050815f5260205f209050919050565b5f82821b905092915050565b5f600883026101097fffffffffffffffffffffffffffffffffffffffffffffffffffffffffffffffff826100ce565b61011386836100ce565b95508019841693508086168417925050509392505050565b5f819050919050565b5f61014e6101496101448461009f565b61012b565b61009f565b9050919050565b5f819050919050565b61016783610134565b61017b61017382610155565b8484546100da565b825550505050565b5f5f905090565b610192610183565b61019d81848461015e565b505050565b5f5b828110156101c3576101b85f82840161018a565b6001810190506101a4565b505050565b818310156101ff576101d9826100a8565b6101e2846100a8565b6101eb836100bc565b8181016101fa838503826101a2565b505050505b505050565b6801000000000000000082111561021e5761021d610068565b5b61022781610095565b8282556102358382846101c8565b505050565b5f60069050919050565b5f60ff82169050919050565b5f61025b8251610244565b80915050919050565b5f819050919050565b6102768261023a565b67ffffffffffffffff81111561028f5761028e610068565b5b6102998183610204565b6102a283610264565b6102ab836100bc565b600183045f5b818110156102e8575f6102c385610250565b6102cc81610155565b80925060208701965050508082850155506001810190506102b1565b50505050505050565b61040f806102fe5f395ff3fe608060405234801561000f575f5ffd5b506004361061003f575f3560e01c80630aaa9cc5146100435780631dad82a51461007357806371195b64146100a3575b5f5ffd5b61005d60048036038101906100589190610241565b6100d3565b60405161006a919061027b565b60405180910390f35b61008d60048036038101906100889190610294565b6100f2565b60405161009a919061027b565b60405180910390f35b6100bd60048036038101906100b89190610241565b610159565b6040516100ca919061027b565b60405180910390f35b5f81815481106100e1575f80fd5b905f5260205f20015f915090505481565b5f8183118061010057505f83145b1561010d575f9050610153565b5f5f8490505b83811161014d57848261012691906102ff565b91508481856101359190610332565b1061014d57848161014691906102ff565b9050610113565b50809150505b92915050565b5f5f5f8054806020026020016040519081016040528092919081815260200182805480156101a457602002820191905f5260205f20905b815481526020019060010190808311610190575b505050505090505f5f825190505b808210156101ef57848383815181106101ce576101cd610365565b5b602002602001015103156101ef5781806101e790610392565b9250506101b2565b8082146101fc5781610200565b6103e75b9350505050919050565b5f5ffd5b5f819050919050565b6102208161020e565b811461022a575f5ffd5b50565b5f8135905061023b81610217565b92915050565b5f602082840312156102565761025561020a565b5b5f6102638482850161022d565b91505092915050565b6102758161020e565b82525050565b5f60208201905061028e5f83018461026c565b92915050565b5f5f604083850312156102aa576102a961020a565b5b5f6102b78582860161022d565b92505060206102c88582860161022d565b9150509250929050565b7f4e487b71000000000000000000000000000000000000000000000000000000005f52601160045260245ffd5b5f6103098261020e565b91506103148361020e565b925082820190508082111561032c5761032b6102d2565b5b92915050565b5f61033c8261020e565b91506103478361020e565b925082820390508181111561035f5761035e6102d2565b5b92915050565b7f4e487b71000000000000000000000000000000000000000000000000000000005f52603260045260245ffd5b5f61039c8261020e565b91507fffffffffffffffffffffffffffffffffffffffffffffffffffffffffffffffff82036103ce576103cd6102d2565b5b60018201905091905056fea2646970667358221220d96e17fc4abaa5f85f4af4ce2b427dbbff05f2e8b6599dff1f1606c3687fa0a964736f6c63430008220033",
					"opcodes": "PUSH1 0x80 PUSH1 0x40 MSTORE PUSH1 0x40 MLOAD DUP1 PUSH1 0xC0 ADD PUSH1 0x40 MSTORE DUP1 PUSH1 0xF PUSH1 0xFF AND DUP2 MSTORE PUSH1 0x20 ADD PUSH1 0x2A PUSH1 0xFF AND DUP2 MSTORE PUSH1 0x20 ADD PUSH1 0x8 PUSH1 0xFF AND DUP2 MSTORE PUSH1 0x20 ADD PUSH1 0x63 PUSH1 0xFF AND DUP2 MSTORE PUSH1 0x20 ADD PUSH1 0x17 PUSH1 0xFF AND DUP2 MSTORE PUSH1 0x20 ADD PUSH1 0xA PUSH1 0xFF AND DUP2 MSTORE POP PUSH0 SWAP1 DUP2 PUSH2 0x56 SWAP2 SWAP1 PUSH2 0x26D JUMP JUMPDEST POP CALLVALUE DUP1 ISZERO PUSH2 0x62 JUMPI PUSH0 PUSH0 REVERT JUMPDEST POP PUSH2 0x2F1 JUMP JUMPDEST PUSH32 0x4E487B7100000000000000000000000000000000000000000000000000000000 PUSH0 MSTORE PUSH1 0x41 PUSH1 0x4 MSTORE PUSH1 0x24 PUSH0 REVERT JUMPDEST PUSH0 DUP2 SLOAD SWAP1 POP SWAP2 SWAP1 POP JUMP JUMPDEST PUSH0 DUP2 SWAP1 POP SWAP2 SWAP1 POP JUMP JUMPDEST PUSH0 DUP2 SWAP1 POP PUSH1 0x1 DUP1 PUSH1 0x1 SUB DUP4 ADD DIV SWAP1 POP SWAP2 SWAP1 POP JUMP JUMPDEST PUSH0 DUP2 SWAP1 POP DUP2 PUSH0 MSTORE PUSH1 0x20 PUSH0 KECCAK256 SWAP1 POP SWAP2 SWAP1 POP JUMP JUMPDEST PUSH0 DUP3 DUP3 SHL SWAP1 POP SWAP3 SWAP2 POP POP JUMP JUMPDEST PUSH0 PUSH1 0x8 DUP4 MUL PUSH2 0x109 PUSH32 0xFFFFFFFFFFFFFFFFFFFFFFFFFFFFFFFFFFFFFFFFFFFFFFFFFFFFFFFFFFFFFFFF DUP3 PUSH2 0xCE JUMP JUMPDEST PUSH2 0x113 DUP7 DUP4 PUSH2 0xCE JUMP JUMPDEST SWAP6 POP DUP1 NOT DUP5 AND SWAP4 POP DUP1 DUP7 AND DUP5 OR SWAP3 POP POP POP SWAP4 SWAP3 POP POP POP JUMP JUMPDEST PUSH0 DUP2 SWAP1 POP SWAP2 SWAP1 POP JUMP JUMPDEST PUSH0 PUSH2 0x14E PUSH2 0x149 PUSH2 0x144 DUP5 PUSH2 0x9F JUMP JUMPDEST PUSH2 0x12B JUMP JUMPDEST PUSH2 0x9F JUMP JUMPDEST SWAP1 POP SWAP2 SWAP1 POP JUMP JUMPDEST PUSH0 DUP2 SWAP1 POP SWAP2 SWAP1 POP JUMP JUMPDEST PUSH2 0x167 DUP4 PUSH2 0x134 JUMP JUMPDEST PUSH2 0x17B PUSH2 0x173 DUP3 PUSH2 0x155 JUMP JUMPDEST DUP5 DUP5 SLOAD PUSH2 0xDA JUMP JUMPDEST DUP3 SSTORE POP POP POP POP JUMP JUMPDEST PUSH0 PUSH0 SWAP1 POP SWAP1 JUMP JUMPDEST PUSH2 0x192 PUSH2 0x183 JUMP JUMPDEST PUSH2 0x19D DUP2 DUP5 DUP5 PUSH2 0x15E JUMP JUMPDEST POP POP POP JUMP JUMPDEST PUSH0 JUMPDEST DUP3 DUP2 LT ISZERO PUSH2 0x1C3 JUMPI PUSH2 0x1B8 PUSH0 DUP3 DUP5 ADD PUSH2 0x18A JUMP JUMPDEST PUSH1 0x1 DUP2 ADD SWAP1 POP PUSH2 0x1A4 JUMP JUMPDEST POP POP POP JUMP JUMPDEST DUP2 DUP4 LT ISZERO PUSH2 0x1FF JUMPI PUSH2 0x1D9 DUP3 PUSH2 0xA8 JUMP JUMPDEST PUSH2 0x1E2 DUP5 PUSH2 0xA8 JUMP JUMPDEST PUSH2 0x1EB DUP4 PUSH2 0xBC JUMP JUMPDEST DUP2 DUP2 ADD PUSH2 0x1FA DUP4 DUP6 SUB DUP3 PUSH2 0x1A2 JUMP JUMPDEST POP POP POP POP JUMPDEST POP POP POP JUMP JUMPDEST PUSH9 0x10000000000000000 DUP3 GT ISZERO PUSH2 0x21E JUMPI PUSH2 0x21D PUSH2 0x68 JUMP JUMPDEST JUMPDEST PUSH2 0x227 DUP2 PUSH2 0x95 JUMP JUMPDEST DUP3 DUP3 SSTORE PUSH2 0x235 DUP4 DUP3 DUP5 PUSH2 0x1C8 JUMP JUMPDEST POP POP POP JUMP JUMPDEST PUSH0 PUSH1 0x6 SWAP1 POP SWAP2 SWAP1 POP JUMP JUMPDEST PUSH0 PUSH1 0xFF DUP3 AND SWAP1 POP SWAP2 SWAP1 POP JUMP JUMPDEST PUSH0 PUSH2 0x25B DUP3 MLOAD PUSH2 0x244 JUMP JUMPDEST DUP1 SWAP2 POP POP SWAP2 SWAP1 POP JUMP JUMPDEST PUSH0 DUP2 SWAP1 POP SWAP2 SWAP1 POP JUMP JUMPDEST PUSH2 0x276 DUP3 PUSH2 0x23A JUMP JUMPDEST PUSH8 0xFFFFFFFFFFFFFFFF DUP2 GT ISZERO PUSH2 0x28F JUMPI PUSH2 0x28E PUSH2 0x68 JUMP JUMPDEST JUMPDEST PUSH2 0x299 DUP2 DUP4 PUSH2 0x204 JUMP JUMPDEST PUSH2 0x2A2 DUP4 PUSH2 0x264 JUMP JUMPDEST PUSH2 0x2AB DUP4 PUSH2 0xBC JUMP JUMPDEST PUSH1 0x1 DUP4 DIV PUSH0 JUMPDEST DUP2 DUP2 LT ISZERO PUSH2 0x2E8 JUMPI PUSH0 PUSH2 0x2C3 DUP6 PUSH2 0x250 JUMP JUMPDEST PUSH2 0x2CC DUP2 PUSH2 0x155 JUMP JUMPDEST DUP1 SWAP3 POP PUSH1 0x20 DUP8 ADD SWAP7 POP POP POP DUP1 DUP3 DUP6 ADD SSTORE POP PUSH1 0x1 DUP2 ADD SWAP1 POP PUSH2 0x2B1 JUMP JUMPDEST POP POP POP POP POP POP POP JUMP JUMPDEST PUSH2 0x40F DUP1 PUSH2 0x2FE PUSH0 CODECOPY PUSH0 RETURN INVALID PUSH1 0x80 PUSH1 0x40 MSTORE CALLVALUE DUP1 ISZERO PUSH2 0xF JUMPI PUSH0 PUSH0 REVERT JUMPDEST POP PUSH1 0x4 CALLDATASIZE LT PUSH2 0x3F JUMPI PUSH0 CALLDATALOAD PUSH1 0xE0 SHR DUP1 PUSH4 0xAAA9CC5 EQ PUSH2 0x43 JUMPI DUP1 PUSH4 0x1DAD82A5 EQ PUSH2 0x73 JUMPI DUP1 PUSH4 0x71195B64 EQ PUSH2 0xA3 JUMPI JUMPDEST PUSH0 PUSH0 REVERT JUMPDEST PUSH2 0x5D PUSH1 0x4 DUP1 CALLDATASIZE SUB DUP2 ADD SWAP1 PUSH2 0x58 SWAP2 SWAP1 PUSH2 0x241 JUMP JUMPDEST PUSH2 0xD3 JUMP JUMPDEST PUSH1 0x40 MLOAD PUSH2 0x6A SWAP2 SWAP1 PUSH2 0x27B JUMP JUMPDEST PUSH1 0x40 MLOAD DUP1 SWAP2 SUB SWAP1 RETURN JUMPDEST PUSH2 0x8D PUSH1 0x4 DUP1 CALLDATASIZE SUB DUP2 ADD SWAP1 PUSH2 0x88 SWAP2 SWAP1 PUSH2 0x294 JUMP JUMPDEST PUSH2 0xF2 JUMP JUMPDEST PUSH1 0x40 MLOAD PUSH2 0x9A SWAP2 SWAP1 PUSH2 0x27B JUMP JUMPDEST PUSH1 0x40 MLOAD DUP1 SWAP2 SUB SWAP1 RETURN JUMPDEST PUSH2 0xBD PUSH1 0x4 DUP1 CALLDATASIZE SUB DUP2 ADD SWAP1 PUSH2 0xB8 SWAP2 SWAP1 PUSH2 0x241 JUMP JUMPDEST PUSH2 0x159 JUMP JUMPDEST PUSH1 0x40 MLOAD PUSH2 0xCA SWAP2 SWAP1 PUSH2 0x27B JUMP JUMPDEST PUSH1 0x40 MLOAD DUP1 SWAP2 SUB SWAP1 RETURN JUMPDEST PUSH0 DUP2 DUP2 SLOAD DUP2 LT PUSH2 0xE1 JUMPI PUSH0 DUP1 REVERT JUMPDEST SWAP1 PUSH0 MSTORE PUSH1 0x20 PUSH0 KECCAK256 ADD PUSH0 SWAP2 POP SWAP1 POP SLOAD DUP2 JUMP JUMPDEST PUSH0 DUP2 DUP4 GT DUP1 PUSH2 0x100 JUMPI POP PUSH0 DUP4 EQ JUMPDEST ISZERO PUSH2 0x10D JUMPI PUSH0 SWAP1 POP PUSH2 0x153 JUMP JUMPDEST PUSH0 PUSH0 DUP5 SWAP1 POP JUMPDEST DUP4 DUP2 GT PUSH2 0x14D JUMPI DUP5 DUP3 PUSH2 0x126 SWAP2 SWAP1 PUSH2 0x2FF JUMP JUMPDEST SWAP2 POP DUP5 DUP2 DUP6 PUSH2 0x135 SWAP2 SWAP1 PUSH2 0x332 JUMP JUMPDEST LT PUSH2 0x14D JUMPI DUP5 DUP2 PUSH2 0x146 SWAP2 SWAP1 PUSH2 0x2FF JUMP JUMPDEST SWAP1 POP PUSH2 0x113 JUMP JUMPDEST POP DUP1 SWAP2 POP POP JUMPDEST SWAP3 SWAP2 POP POP JUMP JUMPDEST PUSH0 PUSH0 PUSH0 DUP1 SLOAD DUP1 PUSH1 0x20 MUL PUSH1 0x20 ADD PUSH1 0x40 MLOAD SWAP1 DUP2 ADD PUSH1 0x40 MSTORE DUP1 SWAP3 SWAP2 SWAP1 DUP2 DUP2 MSTORE PUSH1 0x20 ADD DUP3 DUP1 SLOAD DUP1 ISZERO PUSH2 0x1A4 JUMPI PUSH1 0x20 MUL DUP3 ADD SWAP2 SWAP1 PUSH0 MSTORE PUSH1 0x20 PUSH0 KECCAK256 SWAP1 JUMPDEST DUP2 SLOAD DUP2 MSTORE PUSH1 0x20 ADD SWAP1 PUSH1 0x1 ADD SWAP1 DUP1 DUP4 GT PUSH2 0x190 JUMPI JUMPDEST POP POP POP POP POP SWAP1 POP PUSH0 PUSH0 DUP3 MLOAD SWAP1 POP JUMPDEST DUP1 DUP3 LT ISZERO PUSH2 0x1EF JUMPI DUP5 DUP4 DUP4 DUP2 MLOAD DUP2 LT PUSH2 0x1CE JUMPI PUSH2 0x1CD PUSH2 0x365 JUMP JUMPDEST JUMPDEST PUSH1 0x20 MUL PUSH1 0x20 ADD ADD MLOAD SUB ISZERO PUSH2 0x1EF JUMPI DUP2 DUP1 PUSH2 0x1E7 SWAP1 PUSH2 0x392 JUMP JUMPDEST SWAP3 POP POP PUSH2 0x1B2 JUMP JUMPDEST DUP1 DUP3 EQ PUSH2 0x1FC JUMPI DUP2 PUSH2 0x200 JUMP JUMPDEST PUSH2 0x3E7 JUMPDEST SWAP4 POP POP POP POP SWAP2 SWAP1 POP JUMP JUMPDEST PUSH0 PUSH0 REVERT JUMPDEST PUSH0 DUP2 SWAP1 POP SWAP2 SWAP1 POP JUMP JUMPDEST PUSH2 0x220 DUP2 PUSH2 0x20E JUMP JUMPDEST DUP2 EQ PUSH2 0x22A JUMPI PUSH0 PUSH0 REVERT JUMPDEST POP JUMP JUMPDEST PUSH0 DUP2 CALLDATALOAD SWAP1 POP PUSH2 0x23B DUP2 PUSH2 0x217 JUMP JUMPDEST SWAP3 SWAP2 POP POP JUMP JUMPDEST PUSH0 PUSH1 0x20 DUP3 DUP5 SUB SLT ISZERO PUSH2 0x256 JUMPI PUSH2 0x255 PUSH2 0x20A JUMP JUMPDEST JUMPDEST PUSH0 PUSH2 0x263 DUP5 DUP3 DUP6 ADD PUSH2 0x22D JUMP JUMPDEST SWAP2 POP POP SWAP3 SWAP2 POP POP JUMP JUMPDEST PUSH2 0x275 DUP2 PUSH2 0x20E JUMP JUMPDEST DUP3 MSTORE POP POP JUMP JUMPDEST PUSH0 PUSH1 0x20 DUP3 ADD SWAP1 POP PUSH2 0x28E PUSH0 DUP4 ADD DUP5 PUSH2 0x26C JUMP JUMPDEST SWAP3 SWAP2 POP POP JUMP JUMPDEST PUSH0 PUSH0 PUSH1 0x40 DUP4 DUP6 SUB SLT ISZERO PUSH2 0x2AA JUMPI PUSH2 0x2A9 PUSH2 0x20A JUMP JUMPDEST JUMPDEST PUSH0 PUSH2 0x2B7 DUP6 DUP3 DUP7 ADD PUSH2 0x22D JUMP JUMPDEST SWAP3 POP POP PUSH1 0x20 PUSH2 0x2C8 DUP6 DUP3 DUP7 ADD PUSH2 0x22D JUMP JUMPDEST SWAP2 POP POP SWAP3 POP SWAP3 SWAP1 POP JUMP JUMPDEST PUSH32 0x4E487B7100000000000000000000000000000000000000000000000000000000 PUSH0 MSTORE PUSH1 0x11 PUSH1 0x4 MSTORE PUSH1 0x24 PUSH0 REVERT JUMPDEST PUSH0 PUSH2 0x309 DUP3 PUSH2 0x20E JUMP JUMPDEST SWAP2 POP PUSH2 0x314 DUP4 PUSH2 0x20E JUMP JUMPDEST SWAP3 POP DUP3 DUP3 ADD SWAP1 POP DUP1 DUP3 GT ISZERO PUSH2 0x32C JUMPI PUSH2 0x32B PUSH2 0x2D2 JUMP JUMPDEST JUMPDEST SWAP3 SWAP2 POP POP JUMP JUMPDEST PUSH0 PUSH2 0x33C DUP3 PUSH2 0x20E JUMP JUMPDEST SWAP2 POP PUSH2 0x347 DUP4 PUSH2 0x20E JUMP JUMPDEST SWAP3 POP DUP3 DUP3 SUB SWAP1 POP DUP2 DUP2 GT ISZERO PUSH2 0x35F JUMPI PUSH2 0x35E PUSH2 0x2D2 JUMP JUMPDEST JUMPDEST SWAP3 SWAP2 POP POP JUMP JUMPDEST PUSH32 0x4E487B7100000000000000000000000000000000000000000000000000000000 PUSH0 MSTORE PUSH1 0x32 PUSH1 0x4 MSTORE PUSH1 0x24 PUSH0 REVERT JUMPDEST PUSH0 PUSH2 0x39C DUP3 PUSH2 0x20E JUMP JUMPDEST SWAP2 POP PUSH32 0xFFFFFFFFFFFFFFFFFFFFFFFFFFFFFFFFFFFFFFFFFFFFFFFFFFFFFFFFFFFFFFFF DUP3 SUB PUSH2 0x3CE JUMPI PUSH2 0x3CD PUSH2 0x2D2 JUMP JUMPDEST JUMPDEST PUSH1 0x1 DUP3 ADD SWAP1 POP SWAP2 SWAP1 POP JUMP INVALID LOG2 PUSH5 0x6970667358 0x22 SLT KECCAK256 0xD9 PUSH15 0x17FC4ABAA5F85F4AF4CE2B427DBBFF SDIV CALLCODE 0xE8 0xB6 MSIZE SWAP14 SELFDESTRUCT 0x1F AND MOD 0xC3 PUSH9 0x7FA0A964736F6C6343 STOP ADDMOD 0x22 STOP CALLER "
				},
				"gasEstimates": {
					"creation": {
						"codeDepositCost": "207800",
						"executionCost": "infinite",
						"totalCost": "infinite"
					},
					"external": {
						"buscarTesorito(uint256)": "infinite",
						"repositorioDeCifras(uint256)": "infinite",
						"sumatoria(uint256,uint256)": "infinite"
					}
				},
				"methodIdentifiers": {
					"buscarTesorito(uint256)": "71195b64",
					"repositorioDeCifras(uint256)": "0aaa9cc5",
					"sumatoria(uint256,uint256)": "1dad82a5"
				}
			},
			"storageLayout": {
				"storage": [
					{
						"astId": 62,
						"contract": "09 - Loops/ejercicios-resueltos.sol:EjerciciosLoops",
						"label": "repositorioDeCifras",
						"offset": 0,
						"slot": "0",
						"type": "t_array(t_uint256)dyn_storage"
					}
				],
				"types": {
					"t_array(t_uint256)dyn_storage": {
						"base": "t_uint256",
						"encoding": "dynamic_array",
						"label": "uint256[]",
						"numberOfBytes": "32"
					},
					"t_uint256": {
						"encoding": "inplace",
						"label": "uint256",
						"numberOfBytes": "32"
					}
				}
			},
			"userdoc": {
				"kind": "user",
				"methods": {},
				"version": 1
			}
		}
	}
}