{
	"data": {
		"bytecode": {
			"linkReferences": {},
			"object": "6080604052348015600e575f5ffd5b506103108061001c5f395ff3fe608060405260043610610033575f3560e01c806309a075f11461003757806339d336bf14610067578063539518b114610091575b5f5ffd5b610051600480360381019061004c919061018e565b6100bb565b60405161005e91906101c8565b60405180910390f35b348015610072575f5ffd5b5061007b61012d565b60405161008891906101c8565b60405180910390f35b34801561009c575f5ffd5b506100a5610132565b6040516100b29190610220565b60405180910390f35b5f3360015f6101000a81548173ffffffffffffffffffffffffffffffffffffffff021916908373ffffffffffffffffffffffffffffffffffffffff1602179055505f82600561010a9190610266565b90505f42905060015f5461011e91906102a7565b5f819055508192505050919050565b5f5481565b60015f9054906101000a900473ffffffffffffffffffffffffffffffffffffffff1681565b5f5ffd5b5f819050919050565b61016d8161015b565b8114610177575f5ffd5b50565b5f8135905061018881610164565b92915050565b5f602082840312156101a3576101a2610157565b5b5f6101b08482850161017a565b91505092915050565b6101c28161015b565b82525050565b5f6020820190506101db5f8301846101b9565b92915050565b5f73ffffffffffffffffffffffffffffffffffffffff82169050919050565b5f61020a826101e1565b9050919050565b61021a81610200565b82525050565b5f6020820190506102335f830184610211565b92915050565b7f4e487b71000000000000000000000000000000000000000000000000000000005f52601160045260245ffd5b5f6102708261015b565b915061027b8361015b565b92508282026102898161015b565b915082820484148315176102a05761029f610239565b5b5092915050565b5f6102b18261015b565b91506102bc8361015b565b92508282019050808211156102d4576102d3610239565b5b9291505056fea264697066735822122047e8d8b1214fdc309b97d55d4626283665542c13a9f643e2c3d2c34a4152bf0664736f6c634300081f0033",
			"opcodes": "PUSH1 0x80 PUSH1 0x40 MSTORE CALLVALUE DUP1 ISZERO PUSH1 0xE JUMPI PUSH0 PUSH0 REVERT JUMPDEST POP PUSH2 0x310 DUP1 PUSH2 0x1C PUSH0 CODECOPY PUSH0 RETURN INVALID PUSH1 0x80 PUSH1 0x40 MSTORE PUSH1 0x4 CALLDATASIZE LT PUSH2 0x33 JUMPI PUSH0 CALLDATALOAD PUSH1 0xE0 SHR DUP1 PUSH4 0x9A075F1 EQ PUSH2 0x37 JUMPI DUP1 PUSH4 0x39D336BF EQ PUSH2 0x67 JUMPI DUP1 PUSH4 0x539518B1 EQ PUSH2 0x91 JUMPI JUMPDEST PUSH0 PUSH0 REVERT JUMPDEST PUSH2 0x51 PUSH1 0x4 DUP1 CALLDATASIZE SUB DUP2 ADD SWAP1 PUSH2 0x4C SWAP2 SWAP1 PUSH2 0x18E JUMP JUMPDEST PUSH2 0xBB JUMP JUMPDEST PUSH1 0x40 MLOAD PUSH2 0x5E SWAP2 SWAP1 PUSH2 0x1C8 JUMP JUMPDEST PUSH1 0x40 MLOAD DUP1 SWAP2 SUB SWAP1 RETURN JUMPDEST CALLVALUE DUP1 ISZERO PUSH2 0x72 JUMPI PUSH0 PUSH0 REVERT JUMPDEST POP PUSH2 0x7B PUSH2 0x12D JUMP JUMPDEST PUSH1 0x40 MLOAD PUSH2 0x88 SWAP2 SWAP1 PUSH2 0x1C8 JUMP JUMPDEST PUSH1 0x40 MLOAD DUP1 SWAP2 SUB SWAP1 RETURN JUMPDEST CALLVALUE DUP1 ISZERO PUSH2 0x9C JUMPI PUSH0 PUSH0 REVERT JUMPDEST POP PUSH2 0xA5 PUSH2 0x132 JUMP JUMPDEST PUSH1 0x40 MLOAD PUSH2 0xB2 SWAP2 SWAP1 PUSH2 0x220 JUMP JUMPDEST PUSH1 0x40 MLOAD DUP1 SWAP2 SUB SWAP1 RETURN JUMPDEST PUSH0 CALLER PUSH1 0x1 PUSH0 PUSH2 0x100 EXP DUP2 SLOAD DUP2 PUSH20 0xFFFFFFFFFFFFFFFFFFFFFFFFFFFFFFFFFFFFFFFF MUL NOT AND SWAP1 DUP4 PUSH20 0xFFFFFFFFFFFFFFFFFFFFFFFFFFFFFFFFFFFFFFFF AND MUL OR SWAP1 SSTORE POP PUSH0 DUP3 PUSH1 0x5 PUSH2 0x10A SWAP2 SWAP1 PUSH2 0x266 JUMP JUMPDEST SWAP1 POP PUSH0 TIMESTAMP SWAP1 POP PUSH1 0x1 PUSH0 SLOAD PUSH2 0x11E SWAP2 SWAP1 PUSH2 0x2A7 JUMP JUMPDEST PUSH0 DUP2 SWAP1 SSTORE POP DUP2 SWAP3 POP POP POP SWAP2 SWAP1 POP JUMP JUMPDEST PUSH0 SLOAD DUP2 JUMP JUMPDEST PUSH1 0x1 PUSH0 SWAP1 SLOAD SWAP1 PUSH2 0x100 EXP SWAP1 DIV PUSH20 0xFFFFFFFFFFFFFFFFFFFFFFFFFFFFFFFFFFFFFFFF AND DUP2 JUMP JUMPDEST PUSH0 PUSH0 REVERT JUMPDEST PUSH0 DUP2 SWAP1 POP SWAP2 SWAP1 POP JUMP JUMPDEST PUSH2 0x16D DUP2 PUSH2 0x15B JUMP JUMPDEST DUP2 EQ PUSH2 0x177 JUMPI PUSH0 PUSH0 REVERT JUMPDEST POP JUMP JUMPDEST PUSH0 DUP2 CALLDATALOAD SWAP1 POP PUSH2 0x188 DUP2 PUSH2 0x164 JUMP JUMPDEST SWAP3 SWAP2 POP POP JUMP JUMPDEST PUSH0 PUSH1 0x20 DUP3 DUP5 SUB SLT ISZERO PUSH2 0x1A3 JUMPI PUSH2 0x1A2 PUSH2 0x157 JUMP JUMPDEST JUMPDEST PUSH0 PUSH2 0x1B0 DUP5 DUP3 DUP6 ADD PUSH2 0x17A JUMP JUMPDEST SWAP2 POP POP SWAP3 SWAP2 POP POP JUMP JUMPDEST PUSH2 0x1C2 DUP2 PUSH2 0x15B JUMP JUMPDEST DUP3 MSTORE POP POP JUMP JUMPDEST PUSH0 PUSH1 0x20 DUP3 ADD SWAP1 POP PUSH2 0x1DB PUSH0 DUP4 ADD DUP5 PUSH2 0x1B9 JUMP JUMPDEST SWAP3 SWAP2 POP POP JUMP JUMPDEST PUSH0 PUSH20 0xFFFFFFFFFFFFFFFFFFFFFFFFFFFFFFFFFFFFFFFF DUP3 AND SWAP1 POP SWAP2 SWAP1 POP JUMP JUMPDEST PUSH0 PUSH2 0x20A DUP3 PUSH2 0x1E1 JUMP JUMPDEST SWAP1 POP SWAP2 SWAP1 POP JUMP JUMPDEST PUSH2 0x21A DUP2 PUSH2 0x200 JUMP JUMPDEST DUP3 MSTORE POP POP JUMP JUMPDEST PUSH0 PUSH1 0x20 DUP3 ADD SWAP1 POP PUSH2 0x233 PUSH0 DUP4 ADD DUP5 PUSH2 0x211 JUMP JUMPDEST SWAP3 SWAP2 POP POP JUMP JUMPDEST PUSH32 0x4E487B7100000000000000000000000000000000000000000000000000000000 PUSH0 MSTORE PUSH1 0x11 PUSH1 0x4 MSTORE PUSH1 0x24 PUSH0 REVERT JUMPDEST PUSH0 PUSH2 0x270 DUP3 PUSH2 0x15B JUMP JUMPDEST SWAP2 POP PUSH2 0x27B DUP4 PUSH2 0x15B JUMP JUMPDEST SWAP3 POP DUP3 DUP3 MUL PUSH2 0x289 DUP2 PUSH2 0x15B JUMP JUMPDEST SWAP2 POP DUP3 DUP3 DIV DUP5 EQ DUP4 ISZERO OR PUSH2 0x2A0 JUMPI PUSH2 0x29F PUSH2 0x239 JUMP JUMPDEST JUMPDEST POP SWAP3 SWAP2 POP POP JUMP JUMPDEST PUSH0 PUSH2 0x2B1 DUP3 PUSH2 0x15B JUMP JUMPDEST SWAP2 POP PUSH2 0x2BC DUP4 PUSH2 0x15B JUMP JUMPDEST SWAP3 POP DUP3 DUP3 ADD SWAP1 POP DUP1 DUP3 GT ISZERO PUSH2 0x2D4 JUMPI PUSH2 0x2D3 PUSH2 0x239 JUMP JUMPDEST JUMPDEST SWAP3 SWAP2 POP POP JUMP INVALID LOG2 PUSH5 0x6970667358 0x22 SLT KECCAK256 SELFBALANCE 0xE8 0xD8 0xB1 0x21 0x4F 0xDC ADDRESS SWAP12 SWAP8 0xD5 TSTORE CHAINID 0x26 0x28 CALLDATASIZE PUSH6 0x542C13A9F643 0xE2 0xC3 0xD2 0xC3 BLOBBASEFEE COINBASE MSTORE 0xBF MOD PUSH5 0x736F6C6343 STOP ADDMOD 0x1F STOP CALLER "
		},
		"gasEstimates": {
			"creation": {
				"codeDepositCost": "156800",
				"executionCost": "200",
				"totalCost": "157000"
			},
			"external": {
				"registrarInteraccion(uint256)": "infinite",
				"totalInteracciones()": "2424",
				"ultimoUsuario()": "2530"
			}
		},
		"methodIdentifiers": {
			"registrarInteraccion(uint256)": "09a075f1",
			"totalInteracciones()": "39d336bf",
			"ultimoUsuario()": "539518b1"
		}
	},
	"abi": [
		{
			"inputs": [
				{
					"internalType": "uint256",
					"name": "_multiplicador",
					"type": "uint256"
				}
			],
			"name": "registrarInteraccion",
			"outputs": [
				{
					"internalType": "uint256",
					"name": "",
					"type": "uint256"
				}
			],
			"stateMutability": "payable",
			"type": "function"
		},
		{
			"inputs": [],
			"name": "totalInteracciones",
			"outputs": [
				{
					"internalType": "uint256",
					"name": "",
					"type": "uint256"
				}
			],
			"stateMutability": "view",
			"type": "function"
		},
		{
			"inputs": [],
			"name": "ultimoUsuario",
			"outputs": [
				{
					"internalType": "address",
					"name": "",
					"type": "address"
				}
			],
			"stateMutability": "view",
			"type": "function"
		}
	]
}